:020000040800F2
:100000000004002081020008F11E0008F11E000813
:10001000F11E0008F11E0008F11E0008F11E000884
:10002000F11E0008F11E0008F11E0008D10B0008A7
:10003000F11E0008F11E0008F11E0008F11E000864
:10004000F11E0008F11E0008F11E0008F11E000854
:10005000F11E0008F11E000821560008F11E0008DC
:10006000F11E0008F11E0008F11E0008910C0008A6
:10007000C10C0008010D0008410D0008810D0008A9
:10008000C10D0008010E0008F11E0008F11E000855
:10009000F11E0008F11E0008F11E0008F11E000804
:1000A000F11E0008F11E0008F11E0008F11E0008F4
:1000B000F11E0008F11E0008F11E000811250008BD
:1000C0004125000871250008A1250008F11E00083F
:1000D000F11E0008F11E0008F11E0008F11E0008C4
:1000E000F11E0008F11E0008F11E0008F11E0008B4
:1000F000F11E0008F11E0008F11E0008F11E0008A4
:10010000F11E0008F11E0008511E0008F11E000833
:10011000F11E0008F11E0008F11E0008F11E000883
:10012000410E0008710E0008B10E0008F10E000823
:10013000310F0008F11E0008F11E0008F11E000832
:10014000F11E0008F11E0008F11E0008F11E000853
:10015000710F0008B10F0008F11E0008F11E000821
:10016000D125000801260008F11E0008F11E000834
:10017000F11E0008F11E0008F11E0008F11E000823
:10018000F11E0008F11E0008F11E0008F11E000813
:10019000F11E0008F11E0008F11E0008F11E000803
:1001A000B189000805020008312600081131000855
:1001B000F1390008013C000801450008C15200085F
:1001C00071560008A1560008D1590008015C0008CA
:0801D00041610008316F0008D5
:0401D800E101000839
:1001E00010B5054C237833B9044B13B10448AFF371
:1001F00000800123237010BD380C00200000000097
:1002000038DD0008084B10B51BB108480849AFF3AA
:1002100000800848036803B910BD074B002BFBD0D2
:10022000BDE81040184700BF0000000038DD00089E
:100230003C0C0020380C00200000000000000000F2
:100240002DE9F04F2DED108AC1F80CD0C3689D4602
:10025000BDEC108ABDE8F08F00F06AFF002383F345
:1002600011882846A047002001F042FC00F048FF1A
:1002700001F0DEF900F05CFF00DFFEE700000000A7
:1002800072B6344880F3098840F20000CCF20000D6
:100290004EF63471CEF200010860BFF34F8FBFF30A
:1002A0006F8F40F20000C0F2F0004EF68851CEF29F
:1002B00000010860BFF34F8FBFF36F8F4FF0000056
:1002C000E1EE100A4EF63C71CEF200010860062005
:1002D00080F31488BFF36F8F01F00AFD01F010FD69
:1002E0001D481E491E4A91423CBF41F8040BFAE7E3
:1002F0001C49184A91423CBF41F8040BFAE71A49DD
:100300001A4A1B4B9A423EBF51F8040B42F8040BA9
:10031000F8E700201749184A91423CBF41F8040B06
:10032000FAE701F005FD01F0F3FC144C144DAC426A
:1003300003DA54F8041B8847F9E706F069FB114C0F
:10034000114DAC4203DA54F8041B8847F9E701F079
:10035000E7BC00000008002055555555000000205E
:10036000000400200004002038DD00080008002000
:10037000380C0020380C002008780020A00100086C
:10038000D8010008D8010008DC01000800000000C6
:1003900081F0004102E000BF83F0004330B54FEA36
:1003A00041044FEA430594EA050F08BF90EA020FA3
:1003B0001FBF54EA000C55EA020C7FEA645C7FEA36
:1003C000655C00F0E2804FEA5454D4EB5555B8BF59
:1003D0006D420CDD2C4480EA020281EA030382EACA
:1003E000000083EA010180EA020281EA0303362D5C
:1003F00088BF30BD11F0004F4FEA01314FF4801C2F
:100400004CEA113102D0404261EB410113F0004F40
:100410004FEA03334CEA133302D0524263EB4303F7
:1004200094EA050F00F0A780A4F10104D5F1200E95
:100430000DDB02FA0EFC22FA05F2801841F10001F0
:1004400003FA0EF2801843FA05F359410EE0A5F1C4
:1004500020050EF1200E012A03FA0EFC28BF4CF0F5
:10046000020C43FA05F3C01851EBE37101F00045AB
:1004700007D54FF0000EDCF1000C7EEB00006EEBB8
:100480000101B1F5801F1BD3B1F5001F0CD3490842
:100490005FEA30004FEA3C0C04F101044FEA445299
:1004A00012F5800F80F09A80BCF1004F08BF5FEA20
:1004B000500C50F1000041EB045141EA050130BD00
:1004C0005FEA4C0C404141EB010111F4801FA4F1A3
:1004D0000104E9D191F0000F04BF01460020B1FAF8
:1004E00081F308BF2033A3F10B03B3F120020CDA30
:1004F0000C3208DD02F1140CC2F10C0201FA0CF00E
:1005000021FA02F10CE002F11402D8BFC2F1200C72
:1005100001FA02F120FA0CFCDCBF41EA0C01904028
:10052000E41AA2BF01EB0451294330BD6FEA040471
:100530001F3C1CDA0C340EDC04F11404C4F120025C
:1005400020FA04F001FA02F340EA030021FA04F36E
:1005500045EA030130BDC4F10C04C4F1200220FAC5
:1005600002F001FA04F340EA0300294630BD21FA03
:1005700004F0294630BD94F0000F83F4801306BFC9
:1005800081F480110134013D4EE77FEA645C18BFBD
:100590007FEA655C29D094EA050F08BF90EA020F54
:1005A00005D054EA000C04BF1946104630BD91EA4C
:1005B000030F1EBF0021002030BD5FEA545C05D14F
:1005C0004000494128BF41F0004130BD14F580048E
:1005D0003CBF01F5801130BD01F0004545F0FE4102
:1005E00041F470014FF0000030BD7FEA645C1ABF37
:1005F000194610467FEA655C1CBF0B46024650EA6E
:10060000013406BF52EA033591EA030F41F4002199
:1006100030BD00BF90F0000F04BF0021704730B51F
:100620004FF4806404F132044FF000054FF00001F4
:1006300050E700BF90F0000F04BF0021704730B5B5
:100640004FF4806404F1320410F0004548BF40428A
:100650004FF000013EE700BF42004FEAE2014FEADF
:1006600031014FEA02701FBF12F07F4393F07F4FBA
:1006700081F06051704792F0000F14BF93F07F4FEC
:10068000704730B54FF4607401F0004521F000412F
:1006900020E700BF50EA010208BF704730B54FF0B5
:1006A00000050AE050EA010208BF704730B511F0BA
:1006B000004502D5404261EB41014FF4806404F1F2
:1006C00032045FEA915C3FF4DCAE4FF003025FEA74
:1006D000DC0C18BF03325FEADC0C18BF033202EBFC
:1006E000DC02C2F1200300FA03FC20FA02F001FA56
:1006F00003FE40EA0E0021FA02F11444C1E600BFF5
:1007000070B54FF0FF0C4CF4E06C1CEA11541DBFA7
:100710001CEA135594EA0C0F95EA0C0F00F0DEF872
:100720002C4481EA030621EA4C5123EA4C5350EA57
:10073000013518BF52EA033541F4801143F48013A8
:1007400038D0A0FB02CE4FF00005E1FB02E506F039
:100750000042E0FB03E54FF00006E1FB03569CF08E
:10076000000F18BF4EF0010EA4F1FF04B6F5007F94
:1007700064F5407404D25FEA4E0E6D4146EB060606
:1007800042EAC62141EA55514FEAC52040EA5E508F
:100790004FEACE2EB4F1FD0C88BFBCF5E06F1ED839
:1007A000BEF1004F08BF5FEA500E50F1000041EB70
:1007B000045170BD06F0004646EA010140EA02001D
:1007C00081EA0301B4EB5C04C2BFD4EB0C0541EA3F
:1007D000045170BD41F480114FF0000E013C00F354
:1007E000AB8014F1360FDEBF002001F0004170BD78
:1007F000C4F10004203C35DA0C341BDC04F1140491
:10080000C4F1200500FA05F320FA04F001FA05F21C
:1008100040EA020001F0004221F0004110EBD370E9
:1008200021FA04F642EB06015EEA430E08BF20EA15
:10083000D37070BDC4F10C04C4F1200500FA04F3B8
:1008400020FA05F001FA04F240EA020001F000414A
:1008500010EBD37041F100015EEA430E08BF20EABD
:10086000D37070BDC4F1200500FA05F24EEA020E05
:1008700020FA04F301FA05F243EA020321FA04F034
:1008800001F0004121FA04F220EA020000EBD370EB
:100890005EEA430E08BF20EAD37070BD94F0000FEB
:1008A0000FD101F00046400041EB010111F4801F1F
:1008B00008BF013CF7D041EA060195F0000F18BFD0
:1008C000704703F00046520043EB030313F4801F0C
:1008D00008BF013DF7D043EA0603704794EA0C0FC6
:1008E0000CEA135518BF95EA0C0F0CD050EA4106DC
:1008F00018BF52EA4306D1D181EA030101F0004159
:100900004FF0000070BD50EA410606BF1046194680
:1009100052EA430619D094EA0C0F02D150EA01368C
:1009200013D195EA0C0F05D152EA03361CBF1046CD
:1009300019460AD181EA030101F0004141F0FE416C
:1009400041F470014FF0000070BD41F0FE4141F4F0
:10095000780170BD70B54FF0FF0C4CF4E06C1CEAF0
:1009600011541DBF1CEA135594EA0C0F95EA0C0FA5
:1009700000F0A7F8A4EB050481EA030E52EA033560
:100980004FEA013100F088804FEA03334FF0805581
:1009900045EA131343EA12634FEA022245EA1115AE
:1009A00045EA10654FEA00260EF000419D4208BF5F
:1009B000964244F1FD0404F5407402D25B084FEA0C
:1009C0003202B61A65EB03055B084FEA32024FF4B8
:1009D00080104FF4002CB6EB020E75EB030E22BF15
:1009E000B61A754640EA0C005B084FEA3202B6EBD5
:1009F000020E75EB030E22BFB61A754640EA5C0084
:100A00005B084FEA3202B6EB020E75EB030E22BF13
:100A1000B61A754640EA9C005B084FEA3202B6EB14
:100A2000020E75EB030E22BFB61A754640EADC00D3
:100A300055EA060E18D04FEA051545EA16754FEA35
:100A400006164FEAC30343EA52734FEAC2025FEA53
:100A50001C1CC0D111F4801F0BD141EA00014FF0E2
:100A600000004FF0004CB6E711F4801F04BF0143B3
:100A70000020B4F1FD0C88BFBCF5E06F3FF6AFAECF
:100A8000B5EB030C04BFB6EB020C5FEA500C50F15F
:100A9000000041EB045170BD0EF0004E4EEA1131E2
:100AA00014EB5C04C2BFD4EB0C0541EA045170BDE9
:100AB00041F480114FF0000E013C90E645EA060E2D
:100AC0008DE60CEA135594EA0C0F08BF95EA0C0F5B
:100AD0003FF43BAF94EA0C0F0AD150EA01347FF4A3
:100AE00034AF95EA0C0F7FF425AF104619462CE77A
:100AF00095EA0C0F06D152EA03353FF4FDAE1046DD
:100B0000194622E750EA410618BF52EA43067FF42D
:100B1000C5AE50EA41047FF40DAF52EA43057FF4BD
:100B2000EBAE12E700000000000000000000000033
:100B30004FEA4102B2F1E04324BFB3F5001CDCF1FF
:100B4000FE5C0DD901F0004C4FEAC0024CEA507037
:100B5000B2F1004F40EB830008BF20F00100704766
:100B600011F0804F21D113F13872BCBF01F0004069
:100B7000704741F480114FEA5252C2F11802C2F19B
:100B8000200C10FA0CF320FA02F018BF40F001001C
:100B90004FEAC1234FEAD32303FA0CFC40EA0C00CE
:100BA00023FA02F34FEA4303CCE77FEA625307D10B
:100BB00050EA01331EBF4FF0FE4040F44000704742
:100BC00001F0004040F0FE4040F40000704700BFDC
:100BD000064A536823F001035360EFF30983683337
:100BE00083F30988002383F31188704730EF00E016
:100BF00010B5202383F31188104B5B6813F4006356
:100C000018D0F1EE103AEFF309844FF0807344F8F6
:100C10004C3C0B4BDB6844F8083CA4F1680383F3BD
:100C2000098800F0ADFC08B1064B00E0064B44F823
:100C3000503C10BD83F3118810BD00BF00ED00E0F3
:100C400030EF00E06D0200087802000800000000AC
:100C50000E4B4FF0FF319A6A996200229A62D86A6D
:100C6000D962DA62186B19631A63986B60F080506E
:100C700098639A63D86BD963DA63186C19641A6441
:100C80009A6D42F080529A6500F0B2B900100240AD
:100C900008B500F095FA084B196811F00F0105D05E
:100CA000064A596013680BB15068984700F0A8FADB
:100CB000BDE80840FFF79CBF00000240CC75002053
:100CC00008B500F07DFA094B1968C1F3031131B181
:100CD0000A015A60064A93680BB1D068984700F041
:100CE0008FFABDE80840FFF783BF00BF0000024055
:100CF000CC75002000000000000000000000000093
:100D000008B500F05DFA094B1968C1F3032131B150
:100D10000A025A60064A13690BB15069984700F0FD
:100D20006FFABDE80840FFF763BF00BF0000024054
:100D3000CC75002000000000000000000000000052
:100D400008B500F03DFA094B1968C1F3033131B120
:100D50000A035A60064A93690BB1D069984700F0BC
:100D60004FFABDE80840FFF743BF00BF0000024054
:100D7000CC75002000000000000000000000000012
:100D800008B500F01DFA094B1968C1F3034131B1F0
:100D90000A045A60064A136A0BB1506A984700F079
:100DA0002FFABDE80840FFF723BF00BF0000024054
:100DB000CC750020000000000000000000000000D2
:100DC00008B500F0FDF9094B1968C1F3035131B1C1
:100DD0000A055A60064A936A0BB1D06A984700F038
:100DE0000FFABDE80840FFF703BF00BF0000024054
:100DF000CC75002000000000000000000000000092
:100E000008B500F0DDF9094B1968C1F3036131B190
:100E10000A065A60064A136B0BB1506B984700F0F4
:100E2000EFF9BDE80840FFF7E3BE00BF0000024055
:100E3000CC75002000000000000000000000000051
:100E400008B500F0BDF9084B196811F00F0105D085
:100E5000064A5960936B0BB1D06B984700F0D0F9FC
:100E6000BDE80840FFF7C4BE00040240CC75002076
:100E700008B500F0A5F9094B1968C1F3031131B1A8
:100E80000A015A60064A136C0BB1506C984700F087
:100E9000B7F9BDE80840FFF7ABBE00BF0004024051
:100EA000CC750020000000000000000000000000E1
:100EB00008B500F085F9094B1968C1F3032131B178
:100EC0000A025A60064A936C0BB1D06C984700F046
:100ED00097F9BDE80840FFF78BBE00BF0004024051
:100EE000CC750020000000000000000000000000A1
:100EF00008B500F065F9094B1968C1F3033131B148
:100F00000A035A60064A136D0BB1506D984700F002
:100F100077F9BDE80840FFF76BBE00BF0004024050
:100F2000CC75002000000000000000000000000060
:100F300008B500F045F9094B1968C1F3034131B117
:100F40000A045A60064A936D0BB1D06D984700F0C1
:100F500057F9BDE80840FFF74BBE00BF0004024050
:100F6000CC75002000000000000000000000000020
:100F700008B500F025F9094B1968C1F3035131B1E7
:100F80000A055A60064A136E0BB1506E984700F07E
:100F900037F9BDE80840FFF72BBE00BF0004024050
:100FA000CC750020000000000000000000000000E0
:100FB00008B500F005F9094B1968C1F3036131B1B7
:100FC0000A065A60064A936E0BB1D06E984700F03D
:100FD00017F9BDE80840FFF70BBE00BF0004024050
:100FE000CC750020000000000000000000000000A0
:100FF0000B4A002313600B49142202FB03125168B1
:1010000000220A60084941F8332001330E2BF2D147
:10101000064A4FF0FF335360C2F80434704700BFF4
:10102000540C0020C08B0008CC750020000002404A
:101030002DE9F0410E4617469846044618B9214856
:10104000214900F00DFC214D627C2968012000FA45
:1010500002F30B4234D11E484B0640F8327000EBCD
:10106000C20008BF1B4AC0F8048002BF936C43F063
:101070000103936411F47E5F01BF164A936C43F041
:101080000203936463681A6822F00F021A6094F8EE
:1010900010E022680F2000FA0EF0506000221A6063
:1010A000A368194204D11FB1A07C314600F078FE3C
:1010B000627C012303FA02F22B6813432B600020A9
:1010C000BDE8F081A08B000888D60008540C0020F1
:1010D000CC7500200010024000000000000000005D
:1010E000044B1A6B0AB95B6B1BB10348034900F050
:1010F000B7BB704740760020EA8C000888D600080D
:1011000010B5064C236B0BB9636B1BB10448054942
:1011100000F0A6FB0123636310BD00BF40760020F2
:10112000EF8C000888D600080000000000000000D6
:1011300010B5064C236B13B9636B002B03DC04481A
:10114000044900F08DFB0023636310BD407600204E
:10115000F48C000888D600080000000000000000A1
:1011600010B5064C236B002B01DD636B1BB10448EB
:10117000044900F075FB0123636310BD4076002035
:10118000F98C000888D6000800000000000000006C
:1011900010B5074C236B002B02DD636B002B03DCC7
:1011A0000448054900F05CFB0023636310BD00BFE9
:1011B00040760020FE8C000888D600080000000061
:1011C00010B5202383F31188084C236B002B01DB1F
:1011D000636B1BB10648074900F042FB236B0133E8
:1011E0002363002383F3118810BD00BF40760020E5
:1011F000038D000888D600080000000000000000F1
:1012000010B5202383F31188084C236B002B01DDDC
:10121000636B1BB10648074900F022FB236B013BBF
:101220002363002383F3118810BD00BF40760020A4
:10123000088D000888D600080000000000000000AB
:10124000054B1A6B002A02DB5B6B002B03DC0348A7
:10125000034900F005BB7047407600200D8D000863
:1012600088D6000800000000000000000000000018
:10127000054B1A6B12B95B6B002B03DC0348044966
:1012800000F0EEBA704700BF40760020138D0008D2
:1012900088D60008000000000000000000000000E8
:1012A000202383F31188FFF72BBF0000000000000C
:1012B00008B5FFF73DFF084B1A689A4208D09B69B2
:1012C00099689368994203D20448054900F0C8FA26
:1012D000002383F3118808BD40760020308D00087C
:1012E000408D000800000000000000000000000029
:1012F00038B504460D46FFF7A3FF1CB90E480F4949
:1013000000F0AEFAA16A94F8203029430A2BA162BA
:1013100003D1636A194206D138BD0B2B0AD1636A27
:101320001940994206D1002363622046BDE8384047
:1013300000F036B838BD00BF208D000888D6000800
:101340000B4B70B59D690646FFF7AAFFAC6A3440A7
:1013500005D16E620A2000F083F8AC6A3440AB6AB3
:1013600023EA0403AB62FFF7A3FF204670BD00BF72
:101370004076002000000000000000000000000097
:10138000034B00221B605B609A601B615B617047CE
:101390004076002000000000000000000000000077
:1013A00010B50446FFF74CFF1CB90E480E4900F07B
:1013B00057FA94F820300BB10F2B03D109480B4991
:1013C00000F04EFA002384F82030A268084B1B6816
:1013D00099689142FBD25A6823606260204614608B
:1013E0005C6010BDC08D000888D60008A08D000884
:1013F0004076002000000000000000000000000017
:1014000038B50446202383F31188FFF7A9FE94F82A
:1014100020300025052B17D8DFE803F00316160847
:10142000110BFFF7B5FE85F3118838BD636A1D60A7
:101430000AE0656AFFF704FFAB680133AB6094E82C
:101440000C001A60226853604FF0FF33636220463D
:10145000FFF7A6FFFFF79CFE002383F3118838BD3A
:1014600038B50446FFF704FF0E4B1A689D691168F2
:1014700085F8204019604B6001219A6182F82010A4
:10148000EFF30982E969643A91421C4603D90648A0
:10149000A96900F0E5F9A0692946BDE83840FEF7E2
:1014A000CFBE00BF40760020AE8D000800000000D7
:1014B00070B50E4686B00546FFF7DAFE731C0D4C7C
:1014C00010D0A3690C4A314601A800F071FB2846F0
:1014D000FFF7C6FFFFF7B4FE049B33B101A800F08D
:1014E000B7FB02E02846FFF7BBFFA369586A06B0C6
:1014F00070BD00BF4076002001140008000000000D
:1015000070B504460E46FFF7B3FE184B1A689A42B0
:101510001D4608D09B6999689368994203D2144884
:10152000144900F09DF9A869A268836866629A422E
:1015300004D82046BDE87040FFF732BFFFF730FF08
:101540000A4B9C610123054684F82030EFF30983A0
:10155000C269643B9A4203D90748A96900F080F93F
:1015600020462946BDE87040FEF76ABE407600205E
:10157000908D0008408D0008AE8D0008000000002E
:10158000044B1A689B6990689B68984294BF00203E
:10159000012070474076002000000000000000009D
:1015A00038B5144B1A689C69116819604B600121A9
:1015B00082F820109A61002284F82020A2681D463B
:1015C0001B6899689142FBD85A6823606260146076
:1015D0005C60EFF30983E269643B9A4203D90648F1
:1015E000A16900F03DF9A8692146BDE83840FEF741
:1015F00027BE00BF40760020AE8D0008000000002E
:1016000008B5FFF735FEFFF71BFE064B1A689B690E
:1016100092689B689A4203D9BDE80840FFF7C0BFB3
:1016200008BD00BF40760020000000000000000060
:10163000FFF7B6BF0000000000000000000000003F
:1016400008B5FFF775FD084B1A689A4208D09B69E8
:1016500099689368994203D20448054900F000F95B
:10166000002383F3118808BD40760020E08D000838
:10167000408D000800000000000000000000000095
:1016800038B50D46044608B1002903DA0348044979
:1016900000F0E6F824606460A56038BD108E000894
:1016A00088D60008000000000000000000000000D4
:1016B00038B50446FFF7DCFD1CB91348134900F0A8
:1016C000CFF8A368002B236802DBA34202D105E018
:1016D000A34203D10C480E4900F0C2F8A368013BB5
:1016E000002BA3600DDA0B4DAB695C6262681C6075
:1016F0005A60052013606360FFF7B2FEAB69586A59
:1017000038BD002038BD00BF208E000888D60008F4
:10171000F08D00084076002000000000000000006E
:1017200010B52023044683F31188FFF7E9FC204617
:10173000FFF7BEFF0446FFF783FF204610BD000001
:1017400010B50446FFF77CFD1CB91048104900F0A5
:1017500087F8A368002B236802DBA34202D105E0CF
:10176000A34203D109480B4900F07AF8A36801337A
:10177000002BA36009DC2068036823605C60002301
:101780004362BDE81040FFF70BBE10BDD08D0008CE
:1017900088D60008F08D000800000000000000005E
:1017A000FEE7000000000000000000000000000054
:1017B000204BF7B500259D60D9681F4A1F4C21F4C6
:1017C000E0610904090C0A431D49DA60CA6842F065
:1017D0008072CA601B490A6842F001020A60102246
:1017E000DA77202283F82220FFF7CAFD00F0D0F933
:1017F0004021204600F0D4F8A4F13807124BC36111
:10180000012680F82060B861FFF76AFC85F3118833
:1018100062B6BB690D4A9A6104F1300000954FF43D
:10182000A47132460A4B00F003F90A4B836103B0FE
:10183000F0BD00BF00ED00E00003FA05787600205F
:10184000F0ED00E0001000E000040020708D0008C2
:10185000A1170008408E00080000000000000000F2
:1018600008B504460A4672B60348214601F088FFCF
:10187000024BDC62FEE700BF458E00084076002088
:10188000F8B5FFF7DDFCFFF7DBFC1E4D1E4BEC69E6
:10189000586AAA6AA3681B49861AB34201F11C065A
:1018A00018D81A448A622268E76856600023B24258
:1018B000CA611E46E36001D100F0AAFAFFF768FC96
:1018C00086F311882069B847202383F31188FFF736
:1018D00047FCDBE7C969B14213D01A44131A012B44
:1018E00098BF02231C18204600F09AFA064B5A6A49
:1018F000AB6AD21AE31A9A4203D904480449FFF7A3
:10190000AFFFF8BD40760020000C0040308E00088C
:10191000538E0008000000000000000000000000DE
:10192000202383F31188FFF7EBBB000000000000C9
:1019300008B5FFF7FDFB084B1A689A4208D09B696F
:1019400099689368994203D204480549FFF788FFD4
:10195000002383F3118808BD40760020708E0008B4
:10196000408D0008000000000000000000000000A2
:1019700010B5044618B905480549FFF771FF21461F
:101980000820BDE81040FFF793BD00BFD08E0008CF
:1019900088D60008000000000000000000000000E1
:1019A000022280F82020002280F8212082628261B9
:1019B000054A81605169026141610861506100F12D
:1019C0002C02C261704700BF40760020000000007A
:1019D0002DE9F04105460C4616461F46DDF81880F5
:1019E000FFF72EFC2DB1B4F59C7F02D37F2E00D8DB
:1019F0001FB909480949FFF733FFA4F164012944DD
:101A0000074BE96028460F64C1F844800B663146F5
:101A1000BDE8F041FFF7C4BF108F000888D600086A
:101A20005902000800000000000000000000000053
:101A30002DE9F34104460E4690461F462C302546BC
:101A4000854203D0FF2305F8013BF9E7A31998422B
:101A500003D2552200F8012BF9E7FFF761FF089B3D
:101A6000009342463B4631462046FFF7B1FF002136
:101A70000446FFF745FDFFF75BFF204602B0BDE8D7
:101A8000F0810000000000000000000000000000E5
:101A900010B50446FFF744FF2046FFF769FFBDE895
:101AA0001040FFF745BF00000000000000000000EC
:101AB00008B50B4B9B6993F821205862920701BF30
:101AC0005A69196911611B694FF00F0008BF5A610B
:101AD000FFF7C6FC03480449BDE80840FFF7C0BE55
:101AE00040760020E08E0008988E0008000000007C
:101AF00010B50446FFF714FF2046BDE81040FFF77D
:101B0000D7BF00000000000000000000000000003F
:101B10000B4B70B59E69036804460D461BB109481E
:101B20000949FFF79DFE3DB12660746229460320F6
:101B3000BDE87040FFF7BCBC4FF0FF3070BD00BF88
:101B400040760020F08E0008AB8E000800000000F8
:101B500070B5046805460E467CB194F82030032B1E
:101B600003D006480649FFF77BFE00232B60666220
:101B70002046BDE87040FFF713BC70BD208F000801
:101B8000B48E00080000000000000000000000000B
:101B9000054B03F11C02DA611A624FF0FF325A6200
:101BA00000229A62704700BF4076002000000000CB
:101BB000F8B504460D4616461F46FFF741FB0CB12B
:101BC00006B11DB91C481D49FFF74AFE1C4B276191
:101BD0005F6A1C4BE6601946012D51F81C2F98BF17
:101BE00002258A421E4605EB070009D19F62DC618F
:101BF0001C6222606260A560BDE8F84000F0F0B8A9
:101C00009D6A9368451B9D4201D200F009F9F36972
:101C10009A68AA4202D2AD1A1B68F9E75A68236093
:101C2000626014605C60A5609A68551B9D604FF00F
:101C3000FF337362F8BD00BF608F000888D60008CC
:101C4000000C004040760020000000000000000072
:101C500038B50446FFF7F4FA1CB91F481F49FFF7CF
:101C6000FFFDE3681BB91C481D49FFF7F9FD1D4D39
:101C70002B4653F81C2FA2420ED0616822680A60DE
:101C8000226851609A424FF00001E16022D09168D1
:101C9000A3680B44936038BD2168E9610022994232
:101CA0004B60E26003D1BDE8384000F0B1B88B680A
:101CB000A2681A440C4B8A60586AAB6AC31A9342F2
:101CC00008D2D31A012B98BF02231844BDE838402C
:101CD00000F0A6B838BD00BF708F000888D6000895
:101CE000308F000840760020000C0040000000000B
:101CF000704700000000000000000000000000002D
:101D0000704700000000000000000000000000001C
:101D1000704700000000000000000000000000000C
:101D2000FEE70000000000000000000000000000CE
:101D300010B50C4B19685A6898680439824204D26D
:101D400051F8044F42F8044BF8E7D9688A4203D2AD
:101D5000002042F8040BF9E7034A10339342E9D319
:101D600010BD00BF808F0008009000080000000038
:101D700008B5074B4FF080529A651A6E42F0010287
:101D80001A66FEF765FFBDE8084000F021B800BF05
:101D900000100240000000000000000000000000F1
:101DA00000F1604300F01F02400903F5614309019F
:101DB0008000C9B200F1604083F8001300F5614073
:101DC00001239340C0F88031036070470000000099
:101DD00000F05EB8000000000000000000000000FD
:101DE00038B5074CE3689B07054603D50548064907
:101DF000FFF736FD0023656323610223E36038BDEE
:101E0000000C004000900008109000080000000046
:101E1000014B0022DA607047000C00400000000017
:101E200038B5064BDA6812F0020F05461C4603D19E
:101E300003480449FFF714FD656338BD000C0040FA
:101E4000309000081F900008000000000000000013
:101E500010B5FFF7B5F90B4B1A6992070CD50024A2
:101E60001C61202383F31188FFF77AF9FFF708FD3F
:101E7000FFF78EF984F31188FFF7C2F9BDE810402F
:101E8000FEF7B6BE000C004000000000000000009D
:101E9000104A936D43F0080393650F4A936843F02B
:101EA000080393600D4B42F210729B68B3FBF2F291
:101EB0000B4B013A9A624FF0FF32DA6200229A61CC
:101EC0005A63DA605A6001225A6132201A60022194
:101ED000FFF766BF00100240002004E0BC0C0020A9
:101EE000000C0040000000000000000000000000A6
:101EF000FEE70000000000000000000000000000FD
:101F000008B5FFF715F9084B1A689A4208D09B6983
:101F100099689368994203D204480549FFF7A0FCE9
:101F2000002383F3118808BD4076002070900008DC
:101F3000408D0008000000000000000000000000CC
:101F400010B52023044683F31188FFF7D9F8FFF773
:101F500077F9A368002B02DC2046FFF7F1FBFFF7BF
:101F60004FFBBDE81040FFF7CBBF000000000000B2
:101F7000B0F1904F04D1134AD36C43F001031EE03B
:101F8000114B984204D10F4AD36C43F0020316E080
:101F90000E4B984204D10B4AD36C43F004030EE07D
:101FA0000B4B984204D1074AD36C43F0080306E078
:101FB000084B984204D1034AD36C43F08003D364A6
:101FC000704700BF001002400004004800080048AD
:101FD000000C0048001C0048000000000000000049
:101FE000F8B504460D461646FFF7C2FF6A00032304
:101FF00021689340DB431940216020680221914011
:10200000014321606068012101FA05F738436060EF
:10201000E0681840E060E068E060A0680340A3600A
:10202000A368072D01FA02F141EA03018CBF0123E5
:102030000023A16004EB830488BF083D226AAD0041
:102040000F23AB4022EA03032362236AAE4046EA31
:1020500003022262F8BD0000000000000000000042
:1020600070B5036805462C46586819891A7BFFF736
:10207000B7FF54F8143B586859891A7BFFF7B0FF33
:1020800020460121FFF7FCFA29682A4B0C68002240
:102090009C4222600AD103F5DE33986B40F40010B5
:1020A00098639A639A6D42F400121AE0224B9C42A4
:1020B0000AD103F5DC33986B40F4800098639A638F
:1020C0009A6D42F480020CE01C4B9C420AD103F54D
:1020D000DA33986B40F4000098639A639A6D42F487
:1020E00000029A650B692361264600224FF44043A3
:1020F00046F8283B486913460921FEF799FF2B68EB
:102100000022986909211346FEF792FF2B685A694D
:10211000586A526896609A6952682434946009211A
:10212000FFF73EFE2B680921986ABDE87040FFF773
:1021300037BE00BF0054004000580040005C004023
:1021400003681B681A6822F001021A6000BF00BF12
:1021500000BF1A6842F001021A60704700000000D8
:10216000036819680A6870B55D681C8922F001026D
:102170000A6006462846FFF7FBFE2B686200032430
:1021800004FA02F213432B6033685D685E892846C7
:10219000FFF7EEFE76002B68B4401C432C6000BFB6
:1021A00000BF00BF70BD0000000000000000000084
:1021B000036819680A6810B542F0010204460A6013
:1021C000586819891A7BFFF70BFF2368BDE8104098
:1021D000586859891A7BFFF703BF00000000000010
:1021E00038B505460524013C14F0FF0409D02B68DE
:1021F0001B68986910F4004004D00A20FFF748FCDF
:10220000F1E7022038BD00000000000000000000DF
:102210002DE9F84F00F11407044638460E46934660
:102220009846DDF828A0DDF82C90FFF779FA002811
:1022300075D123681D68B8F1000F67D0BBF1000F9E
:1022400064D02046FFF7CCFF002861D12046FFF77D
:1022500077FF21684A69D06892F810C0D0F800E092
:102260000F2303FA0CF32EEA030ECB8B03FA0CF3C5
:102270004EEA030303605368C96919605068C3F8E4
:102280000CB07100C3F804804FEA0848B9F1000FA0
:102290000DD0BAF1000F0AD0022341F080722372F0
:1022A000C4F80CA0C4F8109042EA080103E004232B
:1022B000237248EA01016960036843F00103036087
:1022C0002B6843F0D0032B606B6843F400536B60C2
:1022D000202383F31188FEF713FF42F20671201DBD
:1022E000FFF716FC0646FFF70BFE2B68013623F0BE
:1022F000D0032B6005D16B6843F480436B600224EC
:1023000007E0247A631F5C425C4102E0052400E0A0
:1023100003243846FFF714FE2046BDE8F88F01205D
:10232000BDE8F88F00000000000000000000000081
:1023300010B52023044683F31188FEF711FF201DFA
:102340000021FFF705FCFEF723FF002383F311882C
:1023500010BD0000000000000000000000000000B0
:10236000F0B50468CD060246236820D56169A469EA
:102370004E68356825F00F0535600E7C0D680F211D
:1023800001FA06F66E606668356825F00F0535605F
:102390002568247CA1406960596841F480415960F6
:1023A000196821F046011960052303726EE00806E2
:1023B00030D567697868056825F00F0505603E7CB3
:1023C0003D684FF00F0E0EFA06F66E60157A022D7C
:1023D00020D15E6826F0FF75166925F4803545EA40
:1023E00006455D60FE683F7C35680EFA07FE25EA0B
:1023F0000E0EE58BBD404EEA05053560E5690560CA
:10240000D568C56015694560056845F0010505603A
:102410000420107249063DD56169A4694D68286899
:1024200020F00F0028600D7C08680F2101FA05F5E7
:1024300045606068056825F00F0505602568247C07
:10244000A1406960117A012915D15968146921F4F4
:102450007F0121F4806141EA044141F480615960C7
:10246000016841F001010160596841F4005159606F
:1024700003231372F0BD00211172596841F48041A9
:102480005960196821F0400119601046BDE8F0401C
:10249000FFF74EBFF0BD000000000000000000008C
:1024A00038B50446006843695D682A6822F00F0267
:1024B0002A601D7C1A680F2303FA05F555608269AE
:1024C0005568286820F00F0028601068127C8D0580
:1024D00003FA02F3C1F30022436048BF42F0020254
:1024E000480548BF42F00802CB0402D542F0200262
:1024F00000E042B10448054901F032F92046BDE848
:102500003840FFF715BF38BD880E002080900008C6
:1025100038B5084DAC69FEF753FE04F0FE03EB61DD
:1025200021460548FFF71CFFFEF76AFEBDE838406C
:10253000FEF75EBB00540040580C00200000000075
:1025400038B5084DAC69FEF73BFE04F47C53EB61F3
:1025500021460548FFF7A4FFFEF752FEBDE83840CC
:10256000FEF746BB00540040580C0020000000005D
:1025700038B5084DAC69FEF723FE04F0FE03EB61AD
:1025800021460548FFF7ECFEFEF73AFEBDE838406D
:10259000FEF72EBB00580040780C00200000000021
:1025A00038B5084DAC69FEF70BFE04F47C53EB61C3
:1025B00021460548FFF774FFFEF722FEBDE83840CC
:1025C000FEF716BB00580040780C00200000000009
:1025D00038B5084DAC69FEF7F3FD04F0FE03EB617E
:1025E00021460548FFF7BCFEFEF70AFEBDE838406D
:1025F000FEF7FEBA005C0040980C002000000000CE
:1026000038B5084DAC69FEF7DBFD04F47C53EB6193
:1026100021460548FFF744FFFEF7F2FDBDE83840CC
:10262000FEF7E6BA005C0040980C002000000000B5
:102630000B4A0C4B1360002353601372D360136179
:1026400009490A4A82E80A001372D36013610849F3
:10265000084A82E80A001372D3601361704700BF12
:10266000580C00203091000840900008780C0020A1
:1026700000910008980C00200000000000000000FD
:10268000F8B500F11407064638460D46FFF748F83E
:1026900020BB336830461C68FFF7A2FD28B1104804
:1026A000104901F045F8032413E06D00304645F071
:1026B0000075FFF745FD6560636843F40053636090
:1026C000A3699B06FCD5A36913F0100F14BF0E2459
:1026D00000243846FFF734FC2046F8BD0120F8BD41
:1026E000880E0020D79000080000000000000000C5
:1026F0002DE9F84300F11407054638460E46914689
:102700009846FFF70DF8002865D12B681C68B8F1D2
:10271000000F59D0B9F1000F56D02846FFF760FDE1
:1027200028B12E482E4901F003F803244DE0284635
:10273000FFF706FD29684A69D2F80CE092F810C04C
:10274000DEF8000052680F2303FA0CF320EA0300BE
:10275000CB8B03FA0CF30343CEF80030CB69136044
:102760007600042346EA0846C2F80C90C2F80480BA
:102770002B726660136843F001031360236843F013
:10278000D0032360636843F400536360202383F322
:102790001188FEF7B5FC42F20671281DFFF7B8F963
:1027A0000646FFF7ADFB2368013623F0D003236014
:1027B00005D1636843F480436360022405E02C7A0A
:1027C000631F5C425C4100E005243846FFF7B8FB1C
:1027D0002046BDE8F8830120BDE8F883880E00207C
:1027E000E29000080000000000000000000000006F
:1027F0002DE9F84F00F11409044648460E4692466A
:102800001F46DDF82C80FEF78BFF002840F0898002
:1028100023681D68002F7DD0BAF1000F7AD02046C2
:10282000FFF7DEFC28B14048404900F081FF032457
:1028300071E02046FFF784FC23685869D0F80CC08B
:1028400090F810B0DCF8002040680F2101FA0BFE70
:1028500022EA0E0EDA8B02FA0BF24EEA0202CCF8F2
:102860000020DA690260C0F80CA04760B8F1000FE0
:1028700020D00A9AF2B1D3F818E0DEF80CC09EF826
:1028800010B0DCF8002001FA0BF122EA010A598CA1
:1028900001FA0BF24AEA0201CCF80010DEF804203B
:1028A0001B6A13600A9BD360C2F804800123C4F83A
:1028B000108000E00423760046EA074723726F6029
:1028C000036843F0010303602B6843F0D0032B60DF
:1028D0006B6843F400536B60202383F31188FEF789
:1028E0000FFC42F20671201DFFF712F90646FFF7B2
:1028F00007FB2B68013623F0D0032B6005D16B68F2
:1029000043F480436B60022405E0247A631F5C4239
:102910005C4100E005244846FFF712FB2046BDE875
:10292000F88F0120BDE8F88F880E0020ED90000898
:1029300008B5104B59680A6822F00F020A60197C2A
:102940001A680F238B4053600B4A936843F00203CD
:102950009360202383F31188FEF702FC074B0421C8
:102960001868FEF7C5FCFEF713FC002383F31188FB
:1029700008BD00BFC08B000800000450C4530020F5
:10298000064B9A6822F080429A609A6842F00042B0
:102990009A609A68002AFCDB704700BF0000045070
:1029A000044B1A6B22F00F021A631A6B01390A43A7
:1029B0001A6370470000045000000000000000008F
:1029C000092910B50E4B4FEA41000BD89C69014410
:1029D0000720884024EA0000986198698A400243F1
:1029E0009A6110BD01445C691E390720884024EAC1
:1029F0000000586158698A4002435A6110BD00BF07
:102A00000000045000000000000000000000000072
:102A1000042910B50ED8214B01EB41011C6B490074
:102A20001F20884024EA00001863186B8A40024384
:102A30001A6310BD09290ED8062305395943174BCF
:102A40001F205C6B884024EA00005863586B8A4062
:102A500002435A6310BD0E290ED806230A39594382
:102A60000E4B1F209C6B884024EA00009863986BF3
:102A70008A4002439A6310BD10290DD806230F39EE
:102A80005943064B1F20DC6B884024EA0000D863C2
:102A9000D86B8A400243DA6310BD00BF00000450C7
:102AA00070B52A4CE36C43F40053E364D4F88830E7
:102AB00023F0405343F080530546C4F8883024483F
:102AC0001021082200F04CFB064600283CD1236967
:102AD00043F0807323611F4B1F4C9A6822F0005211
:102AE0009A609A6842F080529A600120FEF7D0FF07
:102AF00028460221FFF754FF28460E210322FFF744
:102B00005FFF284601210E22FFF782FF284631464B
:102B10000322FFF755FF284602213246FFF778FFD0
:102B200020460F210D4A3346FEF782FA6168E068BD
:102B30000B4B8B60247C02680F23A34022EA030323
:102B4000036040F282530B6070BD00BF0010024072
:102B5000BC0C002000000450C08B00083129000884
:102B600040000450000000000000000000000000D1
:102B700038B5254B9A68D207044610D42046FFF793
:102B8000FFFE00BF00BF00BF00BF1F4B1A6842F02E
:102B900001021A609A6842F001029A6010E09A6895
:102BA00042F010029A609968174ACD06FBD49368E8
:102BB00043F002039360144B9B68D807FBD4DDE716
:102BC0001968114AC907FBD5D5231361D3680F498A
:102BD00043F00103D3604B680D7CDC600220CC68BD
:102BE000586020680F21A94020EA0101216040F2CD
:102BF00082511960196841F001011960936843F02E
:102C00000403936038BD00BF00000450C08B00086F
:102C10000E2902D019B100887047002300E001237B
:102C200030F81300704700000000000000000000B2
:102C300038B50446202383F31188FEF791FA6069C2
:102C4000E169FEF755FB94F82030012B0DD1A56901
:102C5000FEF7F6FAE36813B12046FEF7F9FF2046C7
:102C60002946054A2346FEF7A3FFFEF791FA002303
:102C700083F3118838BD00BF312C0008000000002C
:102C80000368324A934205D102F56442136E43F45D
:102C9000006358E0B3F1804F04D12D4A936D43F0A7
:102CA00001032BE02B4A934205D102F50332936DC9
:102CB00043F0020322E0284A934205D102F5023292
:102CC000936D43F0040319E0244A934205D102F5C1
:102CD0000132936D43F0080310E0214A934205D17D
:102CE00002F50032936D43F0100307E01D4A934252
:102CF00006D102F5FE32936D43F0200393657047D1
:102D0000194A934205D102F55C42136E43F4005315
:102D100019E0164A934205D102F55042136E43F46E
:102D2000803310E0124A934205D102F54C42136EF3
:102D300043F4003307E00F4A934205D102F54842BD
:102D4000136E43F480231366704700BF002C0140CC
:102D5000001002400004004000080040000C004049
:102D600000100040001400400034014000400140C9
:102D70000044014000480140000000000000000045
:102D8000F8B50446FFF77CFF2368654A934220D0DC
:102D9000B3F1804F1DD0A2F5943293421BD002F5BF
:102DA0008062934217D002F58062934213D002F5FD
:102DB0009432934211D002F5406293420FD002F553
:102DC000806293420BD057498B4214BF01210E21E0
:102DD00006E0012104E0022102E0032100E00E21CF
:102DE0006268208994F815C0B2F1904F04D14E4E1C
:102DF000F56C45F001051EE04C4DAA4204D14A4E47
:102E0000F56C45F0020516E0494DAA4204D1464E44
:102E1000F56C45F004050EE0464DAA4204D1424E41
:102E2000F56C45F0080506E0434DAA4204D13E4E3C
:102E3000F56C45F08005F564470003251668BD4034
:102E4000ED432E40166016684FF0020E0EFA07FE94
:102E50004EEA060616600126D2F804E08640BCF170
:102E6000000F02D12EEA060601E046EA0E06566081
:102E7000D6682E40D660D668D66096683540956094
:102E800096680125BD403543072895608CBF012514
:102E9000002502EB850288BF0838166A80000F25DE
:102EA000854026EA05051562156A814029431162AD
:102EB0004FF440425A64A269DA622169227D0139E5
:102EC000012A0CBF07220622032923D8DFE801F0DC
:102ED000020A121A996941EA02129A611A6A42F0C8
:102EE000010216E0996941EA02329A611A6A42F0D7
:102EF00010020EE0D96941EA0212DA611A6A42F45C
:102F0000807206E0D96941EA0232DA611A6A42F453
:102F100080521A621A6842F001021A60F8BD00BFBE
:102F2000002C01400048014000100240000400480D
:102F300000080048000C0048001C00480000000089
:102F40000268174B17489A4210B5174B0ED0174C12
:102F5000A2420BD004F54064A24207D004F580647D
:102F6000A24203D004F58064A24206D18068DB68E7
:102F700000F46050B0F5407F04E080689B68C0F3C7
:102F800002200328D06A88BF5B000130B3FBF0F356
:102F9000B3FBF1F101B1013900239162536210BD1D
:102FA000002C014000100240BC0C00200034014005
:102FB000F0B5444B93B003F11007064602AC3D4612
:102FC00018685968224603C20833BB421446F7D139
:102FD000286869683C4D6B4603C30FCD06AC0FC42F
:102FE0000FCD0FC495E80F0084E80F00374A374C27
:102FF00013681B0755BFD2F894301368C3F303233B
:10300000C3F3031312A901EB8303916853F8303C17
:10301000C1F38101022906D0032906D02C480129D9
:1030200008BF03461DE02B4B1BE0E068E16800F0A1
:103030000300C1F30211022801F1010103D00328AA
:1030400002D1244B00E0224BB3FBF1F3D068D168EE
:10305000C1F34161C0F30620013143434900B3FB92
:10306000F1F3916812A8C1F30311014411F8401C57
:10307000CB40736091689268C1F30221C2F3C2220F
:103080000144024411F8481C12F8482C23FA01F1BB
:10309000D340F360104BB1609B6842F21072B3FBF7
:1030A000F2F20E4B196821F001011960013A596AD8
:1030B0009A6201225A6159621A6842F001021A604A
:1030C00013B0F0BDC08A0008D88A00080010024082
:1030D0000024F400001BB700BC0C0020000C0040D2
:1030E00010B5074CA06820F47F5020F0300040EA73
:1030F000C32343EA022242EA0111A16010BD00BFCE
:10310000001002400000000000000000000000006D
:10311000014B00221A707047BC0C00200000000018
:1031200013B50949094B8C684A680948C968B2FB5C
:10313000F3F2B1FBF3F1B4FBF3F30091054900F0B6
:10314000F7FA02B010BD00BFBC0C002040420F00D7
:10315000880E0020609100080000000000000000C0
:103160001A4838B5036823F0806303604AF6C974CF
:103170000568164B2D0105D5013CF9D11A68144894
:1031800014491CE01C6924F4FE4444EA012119613D
:1031900019695208013A21F0C06141EA42621A619C
:1031A0001A6842F080621A604AF6C9730268120116
:1031B00009D4013BFAD1054B05481A68064900F0CD
:1031C000B7FA012038BD002038BD00BF0010024012
:1031D000880E00208F910008A391000800000000D5
:1031E000F0B5644685B00026B0FBF1F201FB120396
:1031F000092B06F1010601AF94BF30333733BD19F7
:10320000DBB2104605F8013C002AEDD135462368B3
:103210009E420AD2E368207C9847A3686268013323
:103220009342A3600FD20136F1E7A26863689B1A4C
:103230009D4228BF1D462A44A26025B1013DE36896
:10324000785D9847F9E705B0F0BD00000000000088
:103250002DE9F0432DED028B87B01D46002304902D
:103260000291039301931078571C002800F01181FC
:1032700025280AD0049B9847039B029A0133934266
:10328000039380F006813A46EDE720238DF8143051
:103290005378302B04BF971C8DF81430002217F898
:1032A000010BA0F13003DBB2092B03D92A2805D189
:1032B0002B7804350A2101FB0232F0E72E282C4638
:1032C00001924FF000060ED117F8010BA0F1300368
:1032D000DBB2092B03D92A2805D1237804340A222A
:1032E00002FB0636F0E7632824D012D8412800F00C
:1032F0009F8004D8252800F0C6802546C3E75328C0
:1033000020D05828F9D1251D0DF1040C206810217A
:1033100030E0692826D004D8642823D0662838D025
:10332000EBE773280ED07528E7D1251D0DF1040CAD
:1033300020681EE0049B20789847039B0133251DDD
:103340000393A0E7251D24682378002B9BD0039BC3
:103350005A1C0392029A934295D214F8010B049BD3
:103360009847F1E7251D2468002C06DB0DF1040CBD
:1033700020460A21FFF734FF85E7049B2D2098475C
:10338000039B029A01339342039380F0828064424C
:10339000ECE7073424F00704D4E90001FDF7C8FB8B
:1033A00008EE100AB5EEC08AF1EE10FA04F1080535
:1033B0000AD5049B2D209847039B029A0133934220
:1033C000039366D2B1EE488AFDEEC88A731E092BBC
:1033D0000DF1040C18EE900A4FF00A0128BF0926DF
:1033E000FFF7FEFE029B039A9A4252D2049B2E20C4
:1033F0009847039B029A01339342039349D23023A7
:103400008DF814300196264B013EF8EEE87A53F819
:10341000263078EE677A08EE103AB8EEC88A0DF1D9
:10342000040C27EE888AFDEEC87A17EE900AA0E712
:1034300030238DF81430D4F80090D4F80480A668B6
:1034400002230193002545451ADA002D0CDC0DF10D
:10345000040C19F805001021FFF7C2FE029B039A25
:103460009A4216D20135EEE7002EF0D0049BF0B25E
:103470009847039B029A013393420393E7D308E0F2
:1034800004F10C05FFE6049B9847039B013303936B
:1034900033E7039807B0BDEC028BBDE8F08300BFB3
:1034A000C0910008000000000000000000000000C3
:1034B000044BDA691106FBD580B21885DA69120669
:1034C000FCD57047004400400000000000000000F0
:1034D00008B5FDF72DFE084B1A689A4208D09B6983
:1034E00099689368994203D204480549FEF7B8F9F0
:1034F000002383F3118808BD407600200092000865
:10350000408D0008000000000000000000000000E6
:10351000B0F1904FF0B504D12F4DEC6C44F00104A4
:103520001EE02E4CA04204D12B4DEC6C44F0020462
:1035300016E02B4CA04204D1274DEC6C44F004045F
:103540000EE0284CA04204D1234DEC6C44F008045A
:1035500006E0254CA04204D11F4DEC6C44F08004E1
:10356000EC644E0003240568B440E4432540056044
:1035700007680225B5403D430560012522B9426830
:103580008D4022EA050502E042688D401543456002
:10359000C2682240C260C268B3401343C3608368FC
:1035A0001C40846082680123B34013430729836071
:1035B0008CBF0123002300EB830088BF0839026A17
:1035C00089000F238B4022EA03030362026A072368
:1035D0008B4013430362F0BD00100240000400481A
:1035E00000080048000C0048001C004800000000D3
:1035F00043F6047310B5C258541CC4501170C1581E
:1036000000F57C52914224BF00F18002C25010BDEF
:1036100001460148FFF7ECBF880E002000000000C3
:1036200000F57C5243F60C7330B51468C358121B76
:103630009A4228BF1A4643F61073C250D2B143F6DD
:1036400008730021C1540C49CB6F91F88850DC609D
:10365000D1F884405A6020680F22AA4020EA020173
:103660000222AA400A432260044A1A601A6842F001
:1036700001021A6030BD00BFC08B0008920002003A
:10368000134BD96F0A6822F00F0210B50A6093F845
:1036900088109A6F0F238B40536043F60C7143F6EA
:1036A00010734258C358D21A425000F57C510C682E
:1036B00023448B4228BF00F180030B6022B943F6FC
:1036C00008730122C25410BDBDE81040FFF7A8BF27
:1036D000C08B000800000000000000000000000097
:1036E0000148FFF7CDBF00BF880E0020000000009A
:1036F00070B543F60C750E46415904461346094809
:10370000C1F57A513246FFF7A3FD6359184443F6D9
:1037100008736051E35C23B12046BDE87040FFF7B9
:103720007FBF70BD113600080000000000000000DF
:103730000EB477B507AC064654F8045B202383F338
:103740001188FDF7DDFC3046294622460194FFF73B
:10375000CFFFFFF7BDFE03B0BDE8704003B0704778
:103760000EB403B503AA52F8041B0192FFF7C0FF81
:1037700002B05DF804EB03B07047000000000000E9
:103780000FB407B504AB064953F8042B0548019361
:10379000FFF75EFD03B05DF804EB04B0704700BFB7
:1037A0009F860100B1340008000000000000000006
:1037B00008B5044640F2DE30FEF76AF9304B04F5F6
:1037C0007C529B6E55695B681432C3F16303AB4254
:1037D000F0D05D1B48BF633513600026AE42E9DAC6
:1037E00004F57C5218321368591C234403F57C53AA
:1037F0001160622903F11803C8BF00211B79C8BFFB
:10380000116094F8702032B10022082B84F87020E7
:10381000E26632D12FE0082B04D1E36E5BB3013BAB
:10382000E36628E00D2B01D00A2B1DD1E36E13B304
:10383000234400221A7204F10800124904F0D8FF50
:10384000012384F870306067202383F31188FDF72B
:1038500057FC0D4B02211868FDF74AFD0320FDF7C8
:10386000FFFDFFF735FE06E0E26E612A9FBF511CA7
:103870001219E16613720136B0E70D2BD4D1FAE7C5
:10388000C08B000810920008C45300200000000004
:1038900008B5034B034A9B6903489A61FFF788FF09
:1038A0004076002013920008880E002000000000DF
:1038B000034BC26F9B68B3FBF2F3024AD3607047BD
:1038C000BC0C00200044004000000000000000008C
:1038D0002DE9F3470646104600220C4619461346CA
:1038E000FFF716FE364AF467936DDFF8F8A0354D02
:1038F00043F40033002793653046FFF7D9FF3B467A
:103900006F6050460921304AFDF792FBDAF8041047
:10391000DAF80C002D4B8B609AF810E003684FF03A
:103920000F0808FA0EF24FF0020923EA020209FA20
:103930000EF313430360264B0B6043F6087301221A
:10394000F2540C232B60C023AB600A98BDF82C10F6
:103950001346FFF7DDFD41463A463B46AAF1140007
:10396000FDF766FB5AF8103C1A4A9A6006F57C523D
:103970001C32DA605AF8081C1AF8040C63225A60E8
:103980000A6808FA00F822EA080809FA00F248EA88
:1039900002020A60104A1A601A68104842F00102D6
:1039A0001A604FF4DC7100974A460D4BFEF740F861
:1039B0002B68706043F001032B6002B0BDE8F08714
:1039C0000010024000440040E13600082844004056
:1039D0009200020024440040A0100200D00C0020FD
:1039E00091380008388C000800000000000000003A
:1039F0000C4B0D49196003F57C5003F18001016007
:103A000043F604700022195043F6087101205854FF
:103A100043F60C71DA6683F870205A679A675A5039
:103A2000704700BF880E0020F891000800000000D9
:103A3000074A138843F001031380064B1A8842F0AB
:103A400001021A8003229A800522DA80704700BFA3
:103A5000F8770020F0770020000000000000000050
:103A6000034A044B1188528819805A80704700BF5E
:103A7000F8770020F0770020000000000000000030
:103A8000044A4FF6FF7313805380034A1380538018
:103A9000704700BF00780020F07700200000000091
:103AA000014B9880704700BFF077002000000000B5
:103AB000014BD880704700BFF07700200000000065
:103AC00010B52023044683F31188FDF749FB2368D2
:103AD00020469B689847FDF75BFB002383F3118822
:103AE00010BD000000000000000000000000000009
:103AF00010B50446FDF7A4FBE36823B12046BDE8FA
:103B00001040FEF7A5B810BD000000000000000046
:103B100008B5FDF70DFB084B1A689A4208D09B695F
:103B200099689368994203D204480549FDF798FEC5
:103B3000002383F3118808BD4076002020920008FE
:103B4000408D0008000000000000000000000000A0
:103B500070B5051D044628460E46FFF7C9FF42F220
:103B6000107202FB06F14FF47A7301F2E731284636
:103B7000B1FBF3F1024A2346BDE87040FEF718B8E6
:103B8000C13A000800000000000000000000000032
:103B900010B50446FDF754FB236913B1201DFFF750
:103BA000A7FFE3691A78032AFDD8DFE802F00209CB
:103BB000111D236820461B6898470128F1D110BDCC
:103BC000D3F801100933E3610029EAD0204608E068
:103BD000D3F80130A26903EBC3031344E361204629
:103BE0000121FFF7B5FF10BD206A10B1616AFDF732
:103BF0007FFB0023A361E36110BD00000000000013
:103C00001F4BFF2199716FF04B0100220120997227
:103C1000197702211A705A709A70DA701A715A71F3
:103C2000DA715872DA721A735A739A73DA731A74F1
:103C30005A749A74DA741A755A759A75DA751A760E
:103C40005A76D8765A779A77DA7783F8202083F8ED
:103C5000212083F8222083F8232083F8241083F87E
:103C6000252083F8262083F8272083F8282083F84E
:103C7000292083F82A2083F82B2083F82C207047F2
:103C8000084E0020000000000000000000000000BE
:103C9000174A00EB400370B5164C174DD118D35C92
:103CA0006371002323736373A377E377AB690646DD
:103CB00048788978E17101220E21A342A071A17296
:103CC000E272217762770BD0202383F31188FDF70E
:103CD00017FA2846AC61EC61FFF75AFFFFF718FFAF
:103CE000324606480649BDE87040FFF721BD00BFD7
:103CF00060920008084E002044530020880E0020E7
:103D000030920008000000000000000000000000E9
:103D1000164A00EB400370B5154C164DD118D35C14
:103D200063710023E372237363736377A377E3778D
:103D3000AB6963220646A34248788978A071E17195
:103D4000A27222770BD0202383F31188FDF7D8F9D4
:103D50002846AC61EC61FFF71BFFFFF7D9FE324646
:103D600005480649BDE87040FFF7E2BC60920008D4
:103D7000084E002044530020880E00203D92000889
:103D800010B50F4CA36983B1202383F31188FDF78D
:103D9000B7F9FDF755FA236913B1201DFFF7A8FE07
:103DA0000023A361E361FFF7B3FE236804485B6867
:103DB000984704480449BDE81040FFF7B9BC00BF6C
:103DC00044530020880E00204A92000800000000A2
:103DD000054902468B6A886B044903EB800304485B
:103DE0001A63FFF7A5BC00BF44520020549200089C
:103DF000880E00200000000000000000000000000D
:103E000000234381014B4360042070472141000897
:103E100008B50B78013B0C2B4CD8DFE803F0074BBF
:103E20004B4B4B1A1E29303D43371200234B9B88C6
:103E3000013343811E20FFF7CBFFFFF7A1FF0220D4
:103E400008BD1E4B1B881B0601D4012008BD1C4B5E
:103E50000BE0062343731B4B07E007234373174B09
:103E60001B8813F0020FF0D0174B4360042008BDED
:103E700008234373114B1B8813F0040FF3E7092346
:103E800043730E4B1B8813F0080FECE70B4B1B889A
:103E90005906DAD50D4BE8E7084B1B88DA06D4D56E
:103EA0000B4BE2E70B234373044B5B889B06CCD59B
:103EB000084BDAE7084B4360002008BDF07700208C
:103EC000E1410008C140000851400008B14100082C
:103ED0001142000811400008C13F00080000000026
:103EE00010B50446FFF7A4FD014B6360042010BD2C
:103EF000013F00080000000000000000000000007A
:103F000008B50B78013B1A2B49D8DFE803F04C4881
:103F1000484848484848484848484848480E1318C0
:103F200020252A2F353A3F451D00204A138843F0AB
:103F300002032FE01D4A538843F002031AE01B4A94
:103F4000138843F0040325E0FFF79AFD2BE0174A9E
:103F5000538843F004030DE0144A138843F0080328
:103F600018E0124A538843F0080303E00F4A5388CD
:103F700043F02003538016E00C4A138843F01003EB
:103F800008E00A4A138843F0400303E0074A138815
:103F900043F08003138006E0FFF762FD03E0044B6B
:103FA0004360002008BD022008BD00BFF07700205C
:103FB000B142000800000000000000000000000006
:103FC0000B78042B07D0052B10D0012B12D00A4BF5
:103FD00043600020704743890BB1013B4381438913
:103FE000012B07D100234381044B00E0044B4360C5
:103FF0000420704702207047B142000821410008A8
:10400000113E000800000000000000000000000059
:1040100008B50B78012B05D00F2B0CD1084B436052
:10402000042008BD074B9B88013343813C20FFF7E8
:10403000CFFE022008BD044B4360002008BD00BF36
:1040400061410008F0770020C13F00080000000037
:1040500010B50B780E2B0CD00F2B0CD0012B1AD1D6
:10406000104B9B88013343813C20FFF7B1FE0220B7
:1040700010BD0D4B0CE090F90D200A49063A0123C2
:10408000498803FA02F4214051FA02F207D0074BA3
:104090004360042010BD064B4360002010BD18464D
:1040A00010BD00BFF07700204142000861410008C8
:1040B000C13F0008000000000000000000000000F8
:1040C00010B50B78012B02D00E2B09D018E00F4B46
:1040D0009B88013343813C20FFF77AFE022010BD0C
:1040E00090F90D200949063A0123098803FA02F4E0
:1040F000214051FA02F207D0054B4360042010BD65
:10410000044B4360002010BD184610BDF07700201E
:1041100041420008C13F000800000000000000000C
:104120000B78012B10B5044605D0052B0CD1084B9C
:104130004360042010BD0020FFF74AFEFFF720FE79
:1041400000232373022010BD024B4360002010BDEA
:10415000113E0008C13F0008000000000000000000
:104160000B78012B10B5044611D10B4BDB880133C2
:1041700043816420FFF72CFE94F90D30074A134465
:1041800013F8060C2073FFF7C3FD022010BD044B8B
:104190004360002010BD00BFF0770020809200082F
:1041A000C13F000800000000000000000000000007
:1041B00002460878012808B50AD1074BDB8801338D
:1041C0005381FFF7A5FD6420FFF702FE022008BD22
:1041D000024B5360002008BDF0770020C13F00086B
:1041E00008B50B78012B0BD1074BDB8801334381DA
:1041F0006420FFF7EDFD0320FFF78AFD022008BDD4
:10420000024B4360002008BDF0770020C13F00084A
:1042100008B50B78012B0BD1074BDB8801334381A9
:104220006420FFF7D5FD0520FFF732FD022008BD11
:10423000024B4360002008BDF0770020C13F00081A
:104240000B78012B10B5044611D10B4BDB880133E1
:1042500043816420FFF7BCFD94F90D30074A1344F5
:1042600013F8060C2073FFF713FD022010BD044B5A
:104270004360002010BD00BFF0770020809200084E
:10428000C13F000800000000000000000000000026
:104290000148024900F014B8384E0020013E0008E1
:1042A0000148024900F00CB8484E0020E13E0008E9
:1042B0000320704700000000000000000000000024
:1042C000014B036041607047B142000800000000EC
:1042D00010B50446436898476368034920469847E9
:1042E0006368236010BD00BFB192000800000000A9
:1042F000F8B5076804460E46B847054620B9636816
:10430000204631469847F8E7042808D107496668EF
:104310002046B84720460649B047266003E00228F9
:1043200004BF236863602846F8BD00BFB29200084E
:10433000B192000800000000000000000000000032
:1043400000220260426082607047000000000000AE
:104350002DE9F84305462DED048B0E46B0EE409A4C
:10436000044600F10C07D4ED008AB6EC018A18EE81
:10437000900A38EE688AFCF76FF968EE097A804691
:1043800017EE900A8946FCF767F90BA3D3E90023DF
:10439000FCF7E0FA02460B4640464946FBF7FEFFB3
:1043A000FCF7C6FB44F8040BBC42DCD1BDEC048B2B
:1043B0002846BDE8F88300BF9A9999999999C93F11
:1043C00010B5044600F0FCFE0023A4F8F03F2046A0
:1043D00010BD000000000000000000000000000010
:1043E00070B52DED028B82B00546B0EE408A00F02C
:1043F000F7FE064600286BD0374C384BA2699A422C
:1044000028D1202383F31188FCF77AFEFCF718FFEC
:10441000236933B1FCF714FF236913B1201DFDF7A5
:1044200017FC0023A361E361FCF782FE2C4B1A68A2
:104430009A4208D09B6999689368994203D22948A7
:104440002949FDF70DFA002383F3118823682248D8
:104450005B689847012E10DD2448304402AC10F808
:10446000023C04F8043D224B21461868FFF740FF48
:10447000204B21461868FFF73BFFDFED1F7AB5F8A8
:10448000F02F28EE278AFCEEC87A17EE903A1344F4
:104490009BB2B3F57A7FA5F8F03F0DD902AC0423A7
:1044A00004F8043D134B21461868FFF721FF104B19
:1044B00021461868FFF71CFFB5F8F01F4FF47A7318
:1044C000B1FBF3F203FB1213A5F8F03F0120FFE765
:1044D00002B0BDEC028B70BD44530020AC520020F2
:1044E00040760020C0920008408D0008D09200085D
:1044F000A09200089092000800007A44000000009A
:10450000404B2DE9F0411C213F4D597000240922F8
:104510000226012799724FF003086FF07B019A7110
:10452000D9741C709E70DC701C715C71DC715C72E3
:10453000DE721C735C739C73DC731C749F7483F851
:1045400014805C759C75DC751C765C769C76DE76DA
:104550001C775C779C77DC7783F8204083F82140D8
:10456000A81883F822402146AA7183F823402C70B2
:104570006C70AC70EC702C716C71EC7104F0C0F864
:10458000224B85F80980FF225A716FF04B029A7214
:1045900068221C705C709C70DC701C719C71DC71FA
:1045A0005F72DC721C735C739C73DC731C745C74D0
:1045B0009C74DC741C755C759C75DC751C765C7673
:1045C000DF761A775F779C77DC7783F8204083F873
:1045D000214083F8224083F8234083F8254083F864
:1045E000264083F8274083F8284083F8294083F841
:1045F0002A4083F82B4083F82C4083F82460BDE8E0
:10460000F08100BF504E0020744E0020864E0020E6
:10461000012380F864300023C0F8783380F87C33BD
:1046200000234FF07E5283614367C361836243631B
:104630008366436483640362C3628363C366C36443
:10464000436543620363C3638365C3654FF0874378
:104650000264026502660367704700000000000004
:1046600010B50446FFF7D4FF204610BD000000003F
:10467000024610B508460C4602F16801403200F0CF
:1046800057FC9FED0B0A2046214600F0A1FBA068D5
:10469000FBF7E2FF04A3D3E90023FBF77DFEFCF761
:1046A00047FAA06010BD00BF1F85EB51B89E2340A4
:1046B000C3F51C3D000000000000000000000000E9
:1046C00000EB81010B6C1360CB6C53608B6D9360BE
:1046D0007047000000000000000000000000000023
:1046E00010B50020DFED0B7A00231C180C4494ED6C
:1046F000007A0C33B3F5C07F77EE877AF5D19FED62
:10470000067A043067EE877A0C28E2EC017AE9D168
:1047100010BD00BF000000000000003D00000000D0
:1047200070B52DED028B9FED168A0E4615460024BE
:10473000F5EC016A9FED127A002318193044D0ED90
:10474000007A0C3377EEE67AB3F5C07FA7EEA77A4E
:10475000F3D19FED0C0A27EE000A02F091FEB4EEB1
:10476000480AF1EE10FA04F10404C8BFB0EE408A22
:104770000C2CDDD1B0EE480ABDEC028B70BD00BF41
:10478000000000000000003D0000000000000000EC
:1047900030B52DED048B90ED0D8A85B0B0EE480A52
:1047A00005460C4602F014FDB0EE409AB0EE480A01
:1047B00002F0BEFDD5ED0E9AB0EE408AB0EE690A69
:1047C00002F006FDF0EE408AB0EE690A02F0B0FD9C
:1047D0001C4B2146F0EE406A01A80C34F1EC017A42
:1047E00013ED036A37EEC67AD3ED007A77EEC67A18
:1047F000A142C7EE277A03F10403B6EE007A77EE02
:10480000C77AE0EC017AE9D1DDED037ADDED020A49
:104810009DED017A28EE670A67EE897AA0EE890A93
:1048200060EE880AB1EE400A60EEA60AE7EE280ABA
:10483000E7EEA60A05B0BDEC048BBDE8304002F0FF
:1048400017BE00BF0C93000800000000000000002D
:1048500008B508462DED028B00F0CAFAB7EE008AC3
:10486000DFED157AB0EE487AA0EE677AF0EEC77AFF
:1048700017EE900AFBF7F0FE02460B46FBF78EFDA3
:1048800002460B4600200D49FBF786FDFCF750F968
:1048900000EE100AB5EEC00AF1EE10FA07D4B4EE3D
:1048A000C80AF1EE10FAC8BFB0EE480A01E09FED69
:1048B000040ABDEC028B08BD0000803B0000F03F05
:1048C00000000000000000000000000000000000E8
:1048D0002DE9F0412DED028B90ED068AB0EE480AED
:1048E000044690460E461F4602F072FCF0EE408AE7
:1048F000B0EE480A02F01CFDD4ED137A94ED107A64
:1049000067EEE87A04F15805E7EE007A404629465A
:10491000B0EE670A00F05CFABDEC028B3846314617
:104920002A46BDE8F04100F09BBA000000000000FC
:104930002DE9F04310EE108A8BB09FED270A044654
:1049400001A815460F4600F043FA4046FBF784FEE7
:104950001DA3D3E9002380468946FBF7D1FEFCF76F
:10496000E7F804F11C0600EE100A2946304600F074
:104970002FFA01AA3046314600F00AFA9FED170AD5
:1049800004A8394600F024FA11A3D3E900234046D5
:104990004946FBF7B5FEFCF7CBF8283400EE100AC9
:1049A000294607A800F014FA2046214607AA00F07D
:1049B000EFF92046214604AA00F0EAF90BB0BDE861
:1049C000F08300BFAFF300807B14AE47E17A943FE1
:1049D000F168E388B5F8F43E9A99993FACC5A737DA
:1049E00010B5D0ED180A90ED170A044602F040FD0C
:1049F00084ED0D0A94ED160A02F0DAFCB1EE400ADD
:104A000084ED0E0AD4ED100A94ED130A02F030FD85
:104A100084ED0F0A10BD000000000000000000003F
:104A200038B510460D461146144600F009FAF0EE6E
:104A3000087A37EEC00AF6EE007A2846214620EEC4
:104A4000270ABDE8384000F0C3B9000000000000AC
:104A500070B52DED028B044696B00D4601A804F109
:104A6000280104F11C02B0EE408A00F091F901A87F
:104A70002A46014600F08CF901A8B0EE480A01462A
:104A800000F0A6F90021242204A803F039FE9DEDD0
:104A9000037AF1EE477ACDED057A8DED077ADDEDFB
:104AA000027A9DED017ACDED067A04F140054FF0D2
:104AB0007E53F1EE476AF1EE677A04AA284629464A
:104AC00004F14C06049308930C93CDED096ACDEDE7
:104AD0000A7A8DED0B7A00F043FA2846314600F051
:104AE000AFF9B6EE008A20EE488A0DA8B0EE480A6B
:104AF000314600F06DF90DA82A46014600F048F94C
:104B00002946B0EE480A10A800F062F910A8014644
:104B1000324600F03DF913A80DA910AA00F0A0F943
:104B2000002505F140010DAB5A19204621440C35F2
:104B3000FFF776FF242DF4D116B0BDEC028B70BDCB
:104B400070B52DED028B04468CB01646684604F114
:104B50000C021D46B0EE408A00F02AF9224603A856
:104B6000314600F025F904F16801684600F008F9C3
:104B700003A800F03DF903A884ED1D0A01469FED4E
:104B8000150A00F025F920462946FFF701FE2046C8
:104B900084ED060A03A9B0EE480AFFF759FF204644
:104BA0006946FFF755FE09ABB0EE408A20466946DC
:104BB00006AAFFF78DFE2046B0EE480A06A909AA0C
:104BC000FFF7B6FE2046FFF70BFF0CB0BDEC028BE3
:104BD00070BD00BF7922A03A000000000000000074
:104BE000F0B5D0F878332DED028B0C25044605FB8B
:104BF00003038BB0084603F17801164600F0C0F8B5
:104C0000D4F8781305FB0141304601F5FC7100F042
:104C1000B7F8D4F878230132202A04BF012384F89E
:104C20007C33354BC4F878231340002BBEBF03F10F
:104C3000FF3363F01F030133C4F8783394F87C33F7
:104C4000002B55D004F1780704F10C0520463946B5
:104C50002A4604F5FC76FFF743FD204631462246FE
:104C6000FFF73EFD204639462A46FFF759FD20460C
:104C700031462246F0EE408AFFF752FDF0EE007A10
:104C8000F4EEE78AF1EE10FAB0EE408A06DCF3EEBD
:104C9000007AB4EEE70AF1EE10FA16DD18EE900A8B
:104CA000FBF7DAFC0223044618EE100A0D460093C7
:104CB000FBF7D2FC1023CDE9020104930F48104901
:104CC00022462B46FEF734FD12E0284600F090F80D
:104CD000DFED0C7A07A8294687EE800A00F078F805
:104CE0002846294607AA00F063F8002384F86430B8
:104CF0000BB0BDEC028BF0BD1F000080880E0020C1
:104D0000E092000800008043000000000000000066
:104D100070B52DED028B044684B001A8B0EE408A38
:104D20009FED140A1D46164600F052F894F86430C0
:104D300020462BB101A932462B46FFF751FF06E072
:104D4000B0EE480A01A932462B46FFF7F9FE20468D
:104D50000C99FFF78DFC20460D9A0A99FFF7B0FCDD
:104D6000626F0B9B94F864001A6004B0BDEC028B78
:104D700070BD00BF0000803D00000000000000008A
:104D800003680B6043684B6083688B60704700006A
:104D900001F10C03F1EC017AB2EC017A77EE877A3B
:104DA0009942E0EC017AF5D1704700000000000064
:104DB00001F10C03F1EC017AB2EC017A77EEC77ADB
:104DC0009942E0EC017AF5D1704700000000000044
:104DD00001F10C03F1EC017A67EE807A9942E0EC84
:104DE000017AF7D1704700000000000000000000C9
:104DF000D0ED007A9FED060AA7EEA70AD0ED017A62
:104E0000A7EEA70AD0ED027AA7EEA70A02F038BBF8
:104E10000000000000000000000000000000000092
:104E200010B50446FFF7E4FFF7EE007A204621466E
:104E300087EE800ABDE81040FFF7CABF00000000FF
:104E40009FED060A00F10C03B0EC017AF1EC017A57
:104E50009842A7EE270AF7D1704700BF0000000074
:104E600091ED027AD2ED017AD1ED016A67EEC77A4F
:104E700092ED027AE6EE877AC0ED007A91ED027A41
:104E8000D2ED007AD1ED006A67EEC77A92ED027A30
:104E9000E6EE877AF1EE677AC0ED017A91ED017A5C
:104EA000D2ED007AD1ED006A67EEC77A92ED017A11
:104EB000E6EE877AC0ED027A70470000000000003D
:104EC000F8B504460D4600F10C062F4694ED000A95
:104ED000F5EC010A02F0E4F9A4EC010A94ED020AEF
:104EE000D7ED000A02F0B4F9B44284ED020AECD125
:104EF000F8BD0000000000000000000000000000FD
:104F0000F8B517460D46044600F10C06284639460A
:104F1000FFF796FFA4EC010AB44205F10C05F5D1A8
:104F2000F8BD0000000000000000000000000000CC
:104F300030B500F10C04002340F8043B02F10C05ED
:104F40000B46F2EC016AB3EC017A50ED017AE6EE21
:104F5000877AAA4240ED017AF3D1A042EBD130BD6D
:104F60002DE9F0410023C618002403F10C07DFED02
:104F70000E7ACD1802EB040E01EB070CF5EC016A7A
:104F8000F04698ED007A65450EF10C0EE6EE877A54
:104F9000F4D104340C2CE6EC017AE6D1242F3B4604
:104FA000E1D1BDE8F08100BF00000000000000007A
:104FB0007FB500F15C0504462846FFF7C1F901AE54
:104FC0004FF0FF3323603046FFF7BAF996E8070049
:104FD000052385E807002046A365C4F8683C04B0B3
:104FE00070BD000000000000000000000000000094
:104FF00000F128033430002243F8042B83429A60E6
:105000005A611A62F7D170470000000000000000EA
:1050100030B52DED028B8DB00546B0EE408A684666
:105020000C46FFF7D5FE28EE080AF6EE007A20EED1
:10503000270A03A8214605F14C04FFF7C9FE6A467A
:1050400020462146FFF7A4FEB0EE480A06A82146F6
:10505000FFF7BEFE05F1400409A806A903AAFFF761
:1050600097FE2046214609AAFFF792FE05F1280087
:105070002146FFF725FF0DB0BDEC028B30BD0000CF
:1050800030B52DED028B04468DB05C30B0EE608AF9
:10509000F0EE408A1546FFF75BF9B0EE680A01466C
:1050A0002046FFF7B5FFDFED427AB4EEE78AF1EE76
:1050B00010FA50DDD4F8683CA3652368002B32D188
:1050C0002B6806936B680793B7EE008A002306A847
:1050D000089309930A938DED0B8AFFF789FEB5EECD
:1050E000400AF1EE10FA33D006A888EE000A014615
:1050F000FFF76EFE09AA06A903A8FFF7B1FE03A8F1
:10510000FFF78EFE03A8211DFFF73AFE06A804F163
:105110001001FFF735FE09A804F11C01FFF730FE6E
:105120002046FFF765FF6846211D2A46FFF7E8FE87
:1051300023680C2101FB034168466831FFF720FE1C
:1051400023680133B3F5807FC8BF40F201132360A9
:105150004FF0FF3028E0A36D013B002BA3651FD16A
:1051600004F1340109A804F12802FFF721FE09A87F
:10517000FFF73EFE2168A1F11503EB2B0BD8F7EEEC
:10518000007AB4EEE70AF1EE10FA04DD04F16800EB
:1051900000F0EEF901E04FF0FF300023236003E060
:1051A000D6DA4FF0FF30A0650DB0BDEC028B30BDFC
:1051B00000007A4400000000000000000000000031
:1051C00038B5044604300D46FFF74AFA04F561701D
:1051D000FFF7EEFE2560204638BD0000000000000D
:1051E0002DE9F0412DED028B8CB0041D06460068C0
:1051F000009009AD05A80DF118080190CDF80880C0
:1052000003952046B0EE408AFFF782FD0746284608
:10521000FFF7EEFD002F39D1F6EE007AB4EEE70A83
:10522000F1EE10FA26D51C4B1C4ADA6020461C4CC5
:105230001C4FFFF7EDF9A369BB421BD0202383F37A
:105240001188FBF75DFF2046A761E761FEF7A0FC30
:10525000FBF76EFF144B1A689A4208D09B69996855
:105260009368994203D211481149FCF7F9FA0023D7
:1052700083F3118806F56170B0EE480ADDED050A8A
:1052800041462A46FFF7FCFE023000E000200CB049
:10529000BDEC028BBDE8F08100ED00E00400FA05F2
:1052A00044530020AC5200204076002020D5000856
:1052B000408D000800000000000000000000000019
:1052C000404B2DE9F0411C213F4D5970002409222B
:1052D0000226012799724FF003086FF07B019A7143
:1052E000D9741C709E70DC701C715C71DC715C7216
:1052F000DE721C735C739C73DC731C749F7483F884
:1053000014805C759C75DC751C765C769C76DE760C
:105310001C775C779C77DC7783F8204083F821400A
:10532000A81883F822402146AA7183F823402C70E4
:105330006C70AC70EC702C716C71EC7103F0E0F976
:10534000224B85F80980FF225A716FF04B029A7246
:1053500068221C705C709C70DC701C719C71DC712C
:105360005F72DC721C735C739C73DC731C745C7402
:105370009C74DC741C755C759C75DC751C765C76A5
:10538000DF761A775F779C77DC7783F8204083F8A5
:10539000214083F8224083F8234083F8254083F896
:1053A000264083F8274083F8284083F8294083F873
:1053B0002A4083F82B4083F82C4083F82460BDE812
:1053C000F08100BFB34E0020D74E0020E94E0020F0
:1053D0009FED070A00F10C03F0EC017AB1EC017AC1
:1053E00077EEC77A9842A7EEA70AF5D102F048B83F
:1053F00000000000000000000000000000000000AD
:105400002DE9F0472DED028BADF5806D00230446AC
:105410000E46154600936F46E9464FF00108A84531
:1054200000F10C0A0EDA514699ED008AFFF7D0FF21
:1054300038EE000A08F1010810EE103A504649F81B
:10544000043FECE70DEB850353ED017A9FED288ACD
:1054500087EE888A20463146FFF792FC0C2000FB3D
:1054600005400C3806F2F451FFF78AFC01230C3496
:10547000F0EE487A1846A84234DA043797ED006A0D
:10548000B4EEE76AF1EE10FA04F10C0E27DD17ED29
:10549000017A36EE477A0C21B5EE407AF1EE10FA39
:1054A00016BF76EE676ADFED136AC6EE876A01FB08
:1054B000036122461CBFB7EE007A77EE666AF2EC13
:1054C000015A12ED047A75EEC75A7245A5EEA67A16
:1054D000A1EC017AF3D1013377EE887AD0E701307D
:1054E0007446C8E70DF5806DBDEC028BBDE8F08712
:1054F0000000FE420000000000000000000000006C
:105500002DE9F0412DED028B9FED178AADF5007D61
:1055100080460F466D466E46002408EB040039199C
:10552000FFF756FF0C34B4F5C06FA6EC010A38EE55
:10553000008AF2D19FED0D0A9FED0B7A28EE008ACA
:1055400080ABF5EC017A77EEC87A9D42A7EEA77A98
:10555000F7D127EE000A0DF5007DBDEC028BBDE80A
:10556000F04101F08DBF00BF000000000000003CD2
:1055700030B52DED028BADF2046D0A466946FFF79A
:105580003FFFBFEE008A4FF0FF34F0EE488A00255F
:10559000214B4FF4C061684601FB0531FFF7B0FFB6
:1055A000F5EEC08AF1EE10FA13D4B4EEE80AF1EE8B
:1055B00010FAB5EEC08A06D5F1EE10FA2C460CD5DD
:1055C000B0EE688A09E0F1EE10FA04D5B0EE408A38
:1055D00001E02C4601E0B0EE680A01350B2D02D047
:1055E000F0EE408AD4E7B5EE400AF1EE10FA0CD0A6
:1055F00088EE008AF7EE087AB4EEE78AF1EE10FA48
:1056000094BF4FF0FF30204600E020460DF2046DBD
:10561000BDEC028B30BD00BF2093000800000000ED
:1056200008B5FBF7CDFD202383F31188FBF798FD28
:105630000A4B0B489A88012393400A4A0021536180
:10564000FCF786FAFBF7A4FD002383F31188FBF730
:10565000D7FDBDE80840FBF7CBBA00BF184F0020CC
:105660002C4F00200004014000000000000000005A
:10567000064A07495160002313701372054A4FF020
:105680009041116093809371704700BF204F0020BC
:1056900000300140184F0020000000000000000012
:1056A000234B002203F12401C3F8FC10C3F80011BE
:1056B0001A62204BFF2199716FF04B010120997202
:1056C000197702211A705A709A70DA701A715A7129
:1056D000DA715872DA721A735A739A73DA731A7427
:1056E0005A749A74DA741A755A759A75DA751A7644
:1056F0005A76D8765A779A77DA7783F8202083F823
:10570000212083F8222083F8232083F8241083F8B3
:10571000252083F8262083F8272083F8282083F883
:10572000292083F82A2083F82B2083F82C20704727
:10573000304F002034500020000000000000000026
:1057400008B5FBF7F5FC084B1A689A4208D09B692C
:1057500099689368994203D204480549FCF780F898
:10576000002383F3118808BD4076002030D500085F
:10577000408D000800000000000000000000000054
:10578000B0F1904F04D1134AD36C43F001031EE0F3
:10579000114B984204D10F4AD36C43F0020316E038
:1057A0000E4B984204D10B4AD36C43F004030EE035
:1057B0000B4B984204D1074AD36C43F0080306E030
:1057C000084B984204D1034AD36C43F08003D3645E
:1057D000704700BF00100240000400480008004865
:1057E000000C0048001C0048000000000000000001
:1057F000F8B50468868885792046FFF7C1FF7100F7
:10580000C9B2032322688B40DB431A402260276819
:10581000012202FA01F040EA070121606168B2400A
:1058200021EA020262606168B54045EA01026260F5
:10583000E2681A40E260E268E260A2681340A36096
:10584000A3680343A360F8BD00000000000000004F
:1058500007B50430FFF7CCFF002300934FF4DC7151
:105860004022034B0348FCF7E3F803B05DF804FB68
:10587000715900086850002000000000000000007E
:1058800038B505460068FCF76BFC6C682D89012370
:10589000AB40A36200BF00BF00BF00BF2046FFF7C0
:1058A0006FFF6D0022680323AB401343236038BDB4
:1058B00010B504460430FFF79BFF2189626801237D
:1058C0008B40936100BF00BF00BF00BF2068BDE8F0
:1058D0001040FCF76DBC000000000000000000005C
:1058E000F0B585B004AC054604F8011D17461E4608
:1058F000FFF7DEFF2246502101230097019628681A
:10590000FCF776FF04462846FFF7BAFF204605B0AD
:10591000F0BD0000000000000000000000000000DA
:1059200010B50446FFF7C4FF217B59B12068502110
:10593000FCF7A6FE08B9022302E00023237301232B
:1059400063730AE0204604F10E020823FFF7C8FF44
:105950000028F0D10123237360732046BDE8104076
:10596000FFF78EBF000000000000000000000000F4
:1059700008B5134B134A9B699A61134C41F21850B6
:10598000FCF786F82046FFF7CBFF637B53B1012B72
:10599000F3D1202383F31188FBF7B2FB0B4B1021CB
:1059A000186807E0202383F31188FBF7A9FB074B56
:1059B00018680821FBF79CFCFFF7C2FEDDE700BF7B
:1059C0004076002040D5000820520020C45300201B
:1059D000064B074A1A60074A5A600C221A810022B5
:1059E0009A721A7302225A73704700BF2052002025
:1059F000780C0020000400480000000000000000B7
:105A00002DE9FF41044617461D468DF80F10FFF79C
:105A10004FFF1DB3082D2E464FF0050828BF08265E
:105A200000970196206850210DF10F020123FCF729
:105A3000EFFB38B99DF80F30AD1B37441E448DF88D
:105A40000F60E6E7B8F1010804D111481149FDF7EC
:105A50006FFE09E02820FCF71BF8E1E706260A2084
:105A6000FCF716F8013E04D12046FFF709FF022596
:105A700009E020685021FCF703FE05460028EED11E
:105A80002046FFF7FDFE284604B0BDE8F08100BFC8
:105A9000880E002053D50008000000000000000020
:105AA000B0F1904F04D1134AD36C43F001031EE0D0
:105AB000114B984204D10F4AD36C43F0020316E015
:105AC0000E4B984204D10B4AD36C43F004030EE012
:105AD0000B4B984204D1074AD36C43F0080306E00D
